:020000040800F2
:10000000180A002045010008C9190008C119000894
:10001000C51900082D0C0008012000080000000090
:10002000000000000000000000000000351B000878
:100030002D120008000000002D1A0008511B0008B6
:100040005F0100085F0100085F0100085F01000810
:100050005F0100085F0100085F0100085F01000800
:100060005F0100085F0100085F0100085F010008F0
:100070005F0100085F0100085F0100085F010008E0
:100080005F0100085F0100085F0100085F010008D0
:100090005F0100085F0100085F0100085F010008C0
:1000A0005F0100085F0100085F0100085F010008B0
:1000B000651C0008C11C00085F0100085F01000802
:1000C0005F0100085F0100085F0100085F01000890
:1000D0005F0100085F010008351D00085F0100088E
:1000E0005F0100085F0100085F0100085F01000870
:1000F0005F0100085F0100085F0100085F01000860
:100100005F0100085F0100085F0100085F0100084F
:100110005F0100085F0100085F0100085F0100083F
:100120005F0100085F0100085F0100085F0100082F
:10013000DFF80CD000F02CFC004800478D200008B0
:10014000180A00200648804706480047FEE7FEE7F9
:10015000FEE7FEE7FEE7FEE7FEE7FEE7FEE7FEE777
:10016000551B000831010008D2B201E000F8012B54
:10017000491EFBD270470022F6E710B513460A4627
:1001800004461946FFF7F0FF204610BD30B505467E
:100190002A460B4612F8010B13F8014B08B1A04296
:1001A000F8D01CB1002802D06D1CF1E7284630BD04
:1001B000421C10F8011B0029FBD1801A7047F0B4D3
:1001C00080EA0102D40F4200B2EB410F02D2024694
:1001D000084611464A0042D0C30DDDB2C1F3C752F2
:1001E000AD1A202D35DAC1F3160141F4000204B135
:1001F0005242C5F1200602FA06F12A411044B3EB3F
:10020000D05F23D0C4B1012DA0EBC35009DCF0BCFA
:100210004FF0004202EAC352DBB200F5000000F0EA
:10022000E6B9400000F1807000EBC350A0F180708F
:1002300040EAD170490009E0490841EAC071A0EBE9
:10024000C35000F50000400800EBC350F0BC00F0C4
:10025000C5B96142012202EB4101001BF6E7F0BC87
:10026000704781F00041AAE780F00040A7E780EAEC
:10027000010210B502F00043400022D04A001FD016
:10028000010E01EB1261C0F35600C2F3560240F4B6
:10029000000042F40002A0FB022000047F39140495
:1002A00000D0401C50EA124001D44000491EC2B2A6
:1002B0000C0604EBD010401C4008802A02D003E05A
:1002C000002010BD20F00100002900DA00201843B2
:1002D00010BD30B480EA010202F0004530F0004267
:1002E00021F0004013D090B1C30DD40DC2F316011C
:1002F000C0F31600E41A41F4000140F400027D341A
:10030000914201D3641C00E04900002C02DA30BCA9
:10031000002070474FF400000023914201D3891A56
:10032000034340084FEA4101F7D151B1914202D154
:100330004FF0004105E002D24FF0010101E06FF003
:10034000010103EBC450284430BC00F047B92DE94B
:10035000FE4F81EA030404F0004421F000410094C0
:100360004FF0000B23F0004350EA01045ED052EA44
:1003700003045BD0C3F30A54C1F30A552C44A4F21E
:10038000F3340194A0FB0254C1F3130141F4801132
:10039000C3F3130343F4801301FB024400FB034E39
:1003A000840A970A44EA815447EA8357A4FB076802
:1003B00002958D0A05FB07854FEA932C04FB0C542C
:1003C0002705029D4FEA065847EA1637B5EB0805A0
:1003D0006EEB070C870E920E47EA811742EA8312F2
:1003E000A7FB0201B6EB0B0164EB00042B0D43EA03
:1003F0000C335E1844EB1C50DA465146E7FB020111
:10040000C5F313044FEA0B3343EA14534FEA0432A3
:10041000019C43EA0603A4F10C040294009CCDE97C
:1004200000B400F021F903B0BDE8F08F00200146D0
:10043000F9E7002801DBC0F10040002901DBC1F130
:100440000041814201D201207047002070470028FE
:1004500001DBC0F10040002901DBC1F10041814214
:1004600001D90120704700207047962300221146D1
:1004700000F0BDB80EB5C10F80EAE0700844CA07AD
:10048000002140F233438DE80E000A460B4600F08F
:10049000EBF803B000BD00F0004220F00040C10DB9
:1004A000C0F3160040F400007F2901DA00207047F5
:1004B000962903DCC1F19601C84001E096398840D5
:1004C000002AF4D04042704720F00040C10DC0F334
:1004D000160040F400007F2901DA002070479629B9
:1004E00003DCC1F19601C8407047963988407047D7
:1004F00070B5C1F30A5201F000450024C1F31301A5
:1005000040F2FF3341F480119A4201DA002070BDBD
:1005100040F233439A42A2F2334203DC524200F0EB
:100520004DF800E090402C43F1D0404270BD30B512
:100530000B46014600202022012409E021FA02F5A1
:100540009D4205D303FA02F5491B04FA02F528443B
:10055000151EA2F10102F1DC30BD2DE9F05F054668
:10056000002092469B4688460646814640241BE072
:10057000284641464746224600F020F853465A4650
:10058000C01A914110D311461846224600F018FABD
:100590002D1A67EB01084F4622460120002100F08A
:1005A0000FFA17EB00094E41201EA4F10104DFDC15
:1005B000484631462A464346BDE8F09F202A04DBE0
:1005C000203A21FA02F00021704721FA02F3D040CC
:1005D000C2F1200291400843194670470029A8BF84
:1005E0007047401C490008BF20F00100704710B45C
:1005F000B0FA80FC00FA0CF050EA010404BF10BC11
:10060000704749B1CCF1200421FA04F411FA0CF13D
:1006100018BF012121430843A3EB0C01CB1D4FEA76
:1006200000614FEA102042BF002010BC704700EB71
:10063000C35010440029A4BF10BC7047401C49009F
:1006400008BF20F0010010BC704710B5141E73F1F4
:10065000000408DA401C41F1000192185B411A4382
:1006600001D120F0010010BD2DE9F04D92469B46CE
:1006700011B1B1FA81F202E0B0FA80F22032904674
:1006800000F09EF904460F4640EA0A0041EA0B01D9
:1006900053465A46084313D0114653EA010019D075
:1006A000C8F140025046FFF789FF05460E46504606
:1006B0005946424600F084F9084305D0012004E081
:1006C00020463946BDE8F08D0020054346EAE07635
:1006D0002C4337430A986305E40AA0EB0800002284
:1006E000FD0A44EA47540A3002D500200146E9E7F2
:1006F000010510196941DDE9084500196941BDE8A6
:10070000F04DA2E72DE9FE4F804681EA0300C00FBD
:100710000C46009021F0004123F00045B8EB0200A8
:10072000A94105D24046214690461C460B4602464A
:1007300023F00040104347D0270DC7F30A00C3F34E
:100740000A510290401A019040286BDAC3F313005B
:1007500040F4801B0098924620B10023D2EB030A9C
:1007600063EB0B0B01985946C0F14002504600F074
:1007700027F906460D4650465946019A00F02FF9D2
:1007800010EB08006141002487EA115284EAE77304
:100790001A4340D0009A62B3019A012A4FEA0752E5
:1007A00015DC001B61EB02014FF0004202EA075228
:1007B000CDE90042001C41F5801132462B46FFF77F
:1007C00053FF03B0BDE8F08F40462146F9E7001B18
:1007D00061EB0201001C41F5801300185B412018F9
:1007E000A2F5001747EB030140EAD570B6196D4139
:1007F00011E06D084FEA360645EAC0754FEA075228
:10080000001B61EB0201001C41F5801149084FEA11
:1008100030000019514132462B4603B0BDE8F04F7D
:10082000FFF713BF0098012240000023D0EB020223
:1008300063EBE073009821464FEAE074B8EB0000E8
:1008400061EB0401E9E783F000435BE781F00041DD
:1008500058E72DE9F04D81EA030404F0004B21F044
:10086000004514464FF0000A23F0004150EA05020B
:1008700020D054EA01021DD0C5F30A570246C5F341
:100880001303C1F31300C1F30A5640F4801543F477
:100890008013A7EB0608101BD64608F2FD3873EB51
:1008A000050002D308F1010801E092185B41B8F19C
:1008B000000F03DA00200146BDE8F08D00204FF460
:1008C0008011064684460EE0171B73EB050705D31F
:1008D000121B63EB050306434CEA010C49084FEA7F
:1008E000300092185B4150EA0107EDD152EA030053
:1008F00012D082EA040083EA0501084305D0101BE8
:10090000AB4106D20122002306E000224FF0004353
:1009100002E06FF0010253101AEB06004CEB085195
:1009200010EB0A0041EB0B01BDE8F04DFFF78DBE67
:10093000C1F30A52C1F3130140F2FF3341F48011B5
:100940009A4202DA00200146704740F233439A424D
:10095000A2F2334202DC5242FFF730BE00F030B860
:1009600030B5041E71F1000404DB4FF00044404236
:1009700064EB0101141E73F1000405DB1C464FF00B
:100980000043524263EB0403994208BF904230BDDA
:100990001CB509480090094801900546009C06E0F6
:1009A000E06840F0010394E8070098471034AC4237
:1009B000F6D3FFF7C1FB00004431000864310008A2
:1009C000202A04DB203A00FA02F10020704791400F
:1009D000C2F1200320FA03F3194390407047202A04
:1009E00006DBCB17203A41FA02F043EAE07306E057
:1009F00041FA02F3D040C2F1200291400843194667
:100A000070470000F0B591B042F20044012001218E
:100A1000C4F2010401F00CF84FF40170012101F05F
:100A20002BF8E020ADF800000026A4F5E050694660
:100A30008DF8036000F05AFF0825C4F2020528462D
:100A400000F002F942F24C40C4F20100019040F281
:100A50000800C2F20000CDE90206802006904FF4A3
:100A6000807007904FF480600890202009904FF428
:100A700000500327CDE90A0601A92846CDE90476EE
:100A800000F070F928460221012200F063F928469F
:100A9000012100F0CDF840F20110ADF834004FF420
:100AA0006020CDE90E060CA920460C968DF840700A
:100AB00000F04CF8204606210122052300F070F8D2
:100AC000204607210222052300F06AF8204605216E
:100AD0000322052300F064F82046012100F024F8E9
:100AE0002046012100F018F8204600F089F800BFE8
:100AF000204600F027F80028FAD1204600F090F8B0
:100B0000204600F01BF80028FAD12046012100F011
:100B10007DF811B0F0BD00008268002922F00102CA
:100B200018BF0132826070478268002922F4807207
:100B300018BF02F580728260704700008068C0F3C1
:100B4000800070478068C0F3C000704780B542687D
:100B50004FF6FF63CFF6F07302EA030C0B680A79D5
:100B600043EA0C0343EA0222426082684FF2FD73BB
:100B7000CFF6F1731A40D1E902C391F805E01A43A8
:100B800042EA0C0242EA4E028260C26A097C22F406
:100B900070020139C9B242EA0151C16280BD000050
:100BA000B0B501EB410C4FF0100E092988BFACF134
:100BB0001E0C88BF4FF00C0E50F80E40072505FAAA
:100BC0000CF5AC4303FA0CF3234340F80E30062A2D
:100BD00002EB820303D834306FF0040207E00C2AE2
:100BE00087BF2C306FF0400230306FF022021A4481
:100BF00003681F259540AB43914019430160B0BD88
:100C0000816841F008018160704700008268002916
:100C100022F4A00218BF02F5A00282607047000013
:100C2000816841F00401816070470000FEE7000028
:100C300002684FF6FE7C42F00103002908BF02EA79
:100C40000C0303607047000002684FF6FE731A4001
:100C50007F230421C4F20203C4F2020102600022D5
:100C60009842026042608260C26016DC4322C4F295
:100C7000020290422CDC0822C4F20202904251D0BF
:100C80001C22C4F2020290424ED03022C4F2020270
:100C900090425ED14FF4706058E040F22F42C4F2AF
:100CA0000202904226DC8022C4F2020290423DD031
:100CB00040F20842C4F2020290423AD040F21C4292
:100CC000C4F20202904244D101F58061F0203DE07F
:100CD0004422C4F20202904236D05822C4F20202E8
:100CE00090421CD06C22C4F20202904231D14FF4E7
:100CF00070002BE040F23042C4F2020290421CD05D
:100D000040F24442C4F2020290421BD040F25842E8
:100D1000C4F20202904218BF704701F580614FF49F
:100D2000702013E00F2011E0F0200FE04FF0706012
:100D30000CE001F580610F2008E001F580614FF4BF
:100D4000706003E001F580614FF470400A68104361
:100D500008607047002A02680CBF22EA01011143B3
:100D6000016070472DE9F047026847F6F073D1E95A
:100D7000026A9A4301F11007B0CF01F11C0E324311
:100D8000D1E900899EE80A501A4322432A433A4394
:100D9000114341EA0C0141EA0E010160C0F804A0D0
:100DA000C0F80880C0F80C90BDE8F0872DE9F04F3E
:100DB00081B048F2841A40F6004BC4F2212AC4F2F2
:100DC000010B00F08BF9DBF8000020F0F000CBF80D
:100DD0000000DBF8000040F03000CBF800000020FD
:100DE000CAF8000040F2EE2001F02AF90120CAF80A
:100DF00000000F2001F024F9DBF8000020F0F000E3
:100E0000CBF80000DBF8000040F08000CBF80000D9
:100E10005AF8800C68B100200446012001F010F956
:100E20005AF8800C18B1C72C04F10100F4D3C62C79
:100E30000ED85AF8800C58B9002400BF012001F0E8
:100E4000FFF85AF8800C18B9EF2C04F10104F5D31F
:100E5000DBF800004FF0010820F0F000CBF80000B4
:100E6000DBF80000CC2740F030004FF000090125EE
:100E7000CBF8000017F001004FF002004FF03C04E7
:100E80004FEA5707CAF8009008BF3C2008BF022469
:100E900001F0D6F82046CAF8008001F0D1F8082DFC
:100EA00005F10105E6D3DBF800004FF0010820F062
:100EB000F000CBF80000DBF80000BE2740F0300067
:100EC0004FF000090125CBF8000000BF17F001002A
:100ED0004FF002004FF03C044FEA5707CAF8009069
:100EE00008BF3C2008BF022401F0AAF82046CAF837
:100EF000008001F0A5F8082D05F10105E6D34FF0BB
:100F000001084FF000090024012700BFDBF80000B2
:100F100020F0F000CBF80000DBF8000040F03000DB
:100F2000CBF800000220CAF8009001F089F8CAF856
:100F30000080DBF8000020F0F000CBF80000DBF8C8
:100F4000000040F08000CBF800000C2001F078F8A1
:100F50005AF8805C3220002D18BF012501F070F88E
:100F6000C4F3460040EAC514082F07F10107CDD3AA
:100F70004FF001084FF0000900270125DBF80000C1
:100F800020F0F000CBF80000DBF8000040F030006B
:100F9000CBF800000220CAF8009001F051F8CAF81E
:100FA0000080DBF8000020F0F000CBF80000DBF858
:100FB000000040F08000CBF800000C2001F040F869
:100FC0005AF8806C3220002E18BF012601F038F844
:100FD000C7F3460040EAC617082D05F10105CDD339
:100FE0000020072F88BF4FF0FF3084EA00017840CF
:100FF000C9B241EA002000B2FFF73CFA0023C3F671
:10100000E4730022FFF7A3F9FFF772FA072F88BFF6
:10101000404200B201B0BDE8F08F000070B582B070
:1010200048F2041508200121C4F22125012600F010
:1010300023FD022040F60044C1F20300C4F2010483
:10104000019001A9204600F051FC2046022100F049
:10105000B5FC206820F0F0002060206840F03000EF
:1010600020600020C5F8800040F2EE2000F0E8FF8C
:101070000F20C5F8806000F0E3FF206820F0F0004A
:101080002060206840F080002060286878B100204F
:101090000446012000F0D4FF286818B1C72C04F1E1
:1010A0000100F5D3C62C02D9012002B070BD28681A
:1010B00010B1002002B070BD002000BF0446012026
:1010C00000F0BEFF286818B9EF2C04F10100F5D339
:1010D0000020EE2C88BF012002B070BD2DE9F04742
:1010E00040F60048C4F20108D8F8000048F2841520
:1010F00020F0F000C8F80000D8F80000C4F2212564
:1011000040F03000C8F800000020286040F2EE20D7
:1011100000F096FF012028600F2000F091FFD8F822
:10112000000020F0F000C8F80000D8F8000040F0FF
:101130008000C8F8000055F8800C70B1002000BF96
:101140000446012000F07CFF55F8800C18B1C72C34
:1011500004F10100F4D3C62C0ED855F8800C58B910
:10116000002400BF012000F06BFF55F8800C18B977
:10117000EF2C04F10104F5D3D8F800004FF0010979
:1011800020F0F000C8F80000D8F80000CC2640F0AD
:1011900030004FF0000A0127C8F8000016F00100E7
:1011A0004FF002004FF03C044FEA5606C5F800A08D
:1011B00008BF3C2008BF022400F042FF2046C5F8CB
:1011C000009000F03DFF082F07F10107E6D3D8F8A3
:1011D0000000442720F0F000C8F80000D8F8000014
:1011E0004FF0000940F03000C8F800004FF001084F
:1011F000012600BF17F001004FF002004FF03C0441
:101200004FEA5707C5F8009008BF3C2008BF0224EA
:1012100000F016FF2046C5F8008000F011FF082EF0
:1012200006F10106E6D3BDE8F08700007047000034
:1012300070B586B0044644F20400012100F01CFCA5
:1012400040F2002040F60005C1F60300C4F201059B
:1012500005AE05902846314600F048FB4FF480600B
:10126000ADF8140004208DF817002846314600F030
:101270003DFB019400204FF4402105F540540290BD
:101280000391ADF8100001A9204600F055FE20465C
:10129000012100F0B9FD06B070BD0000002808BFB4
:1012A0007047B0B50546007843F60004C4F2010467
:1012B00070B100BF2046802100F008FE0028F9D060
:1012C0002978204600F098FE15F8010F0028F1D18A
:1012D0002046402100F0FAFD0028F9D0BDE8B040DA
:1012E0007047000080B56FF0040000F025FC40F26C
:1012F0000000C2F2000000684DF68361C4F21B31A9
:10130000A0FB010140F20262480DC2F2000210701F
:10131000C1F347504FF47A71484340F20061C2F282
:101320000001088080BD00002DE9F04F81B043F23C
:10133000231B43F2401500260FF2F4090FF2F808C0
:10134000C0F6000B42A7C0F600050FF2641A02E0D7
:101350000136012E26D159F82640204601F05EF9CB
:101360004046214600F004F900F0CEFC58463946CC
:1013700001F01EF928464FF47A7100F06DFAD8B9E1
:1013800000F0D2FC0028E3D0044600780028DFD02B
:1013900042A0FFF783FF2046FFF780FF5046FFF78C
:1013A0007DFFD5E743F2F000C0F60000FFF776FFBF
:1013B000002001B0BDE8F08F00F0A6FC43F2231539
:1013C000C0F6000523A1284601F0F2F843F24016CA
:1013D000C0F6000630464FF47A7100F03DFA00F096
:1013E00093FC1EA1284601F0E3F830464FF47A71D1
:1013F00000F032FA00F088FC1BA1284601F0D8F872
:1014000030464FF47A7100F027FA00F07DFC19A104
:10141000284601F0CDF830464FF47A7100F01CFAFE
:1014200018A0214600F0A4F8012001B0BDE8F08F1B
:101430008025000000C201004553503031207472F5
:1014400079206261756420256C750D0A000000002A
:1014500041540000415445300000000041542B43EA
:10146000574D4F44453D310041542B4349504D5554
:10147000583D300041542B43574155544F434F4E34
:101480004E3D31004553503031204154207265614A
:10149000647920617420256C750D0A004553503025
:1014A0003120726177207265706C793A20000000FB
:1014B0000D0A000010B5AAB002AC0FF2500C16A233
:1014C0001AA32046A021CDF800C001F005F900F0D4
:1014D0001BFC43F22310C0F60000214601F068F81F
:1014E00043F24010C0F6000044F6206100F0B4F969
:1014F0000446002817A018BF012410A118BF0846F1
:10150000FFF7CCFE20462AB010BD00BF73373878F5
:1015100063656E710000000041542B43574A4150EF
:101520003D222573222C2225732200004368696E18
:10153000614E65742D44704D640000004553503079
:1015400031205769466920636F6E6E656374656408
:101550000D0A000045535030312057694669206319
:101560006F6E6E656374206661696C65640D0A0058
:1015700083B010B599B084461BA801AC0EC01BAB5C
:10158000204660216246009301F0C0F82046FFF734
:1015900085FE19B0BDE8104003B070472DE9F04F4B
:1015A000E1B0984693468A46089000F0ADFB43F2BE
:1015B0002315C0F6000543F23411C0F60001284699
:1015C00000F0F6FF43F24017C0F6000738464FF42C
:1015D000FA7100F041F943F2281349AC41F69076D4
:1015E00076A2C0F6000320466021009601F074F850
:1015F00000F08AFB2846214600F0DAFF38464FF417
:10160000FA5100F029F9002800F0C98050464FF047
:101610007C514FF07C55FEF7D2FDFEF755FF814619
:1016200050460021FEF713FF002808BF81464046C0
:101630004FF07C51FEF7C3FDFEF746FF8246404661
:101640000021FEF704FF002808BF8246584600210B
:10165000FEF7EFFE40F20008C4F220180446584698
:101660004146FEF704FE4FF07C51002C18BF4FF0AE
:101670003F41FEF7A4FDFEF70EFF089E04463046EC
:101680000021FEF7D6FE074630464146FEF7EFFD45
:10169000002F18BF4FF03F452946FEF790FDFEF79B
:1016A000FAFE46F26761C6F2666180FB01234CF6E2
:1016B000CD42CCF6CC42A0FB027584FB0117A4FB03
:1016C0000212991001EBD371EB0803EB8303A0EB3B
:1016D0004303D20801EB8105002848BFC0EB450356
:1016E000B81002EB820200EBD770A4EB420200EBD1
:1016F0008007002C48BFC4EB4702059243F29202D8
:1017000009AC43F228178DE80A04CDE90390C0F62E
:10171000000238A320464FF48071C0F600070697F8
:1017200000F0DAFF2046FEF743FD84B249AD33A254
:1017300028466021234600F0CFFF00F0E5FA43F28F
:101740002310C0F60000294600F032FF2FA041F21E
:10175000883100F081F828B300F0D6FA09A82146B4
:1017600000F02EFB30A04FF4FA5100F075F8E0B114
:1017700000F0CAFA43F2231043F23411C0F600001D
:10178000C0F6000100F014FF43F24010C0F6000064
:101790004FF4FA6100F060F801242AA007E0002469
:1017A0000DA004E01AA0002401E0002420A0FFF70F
:1017B00075FD204661B0BDE8F08F00BF41542B435A
:1017C000495053544152543D22544350222C222517
:1017D00073222C25750000004553503031205443AE
:1017E0005020636F6E6E656374206661696C65641A
:1017F0000D0A00002F73656E736F720041542B4306
:10180000495053454E443D25750000003E00000000
:1018100045535030312043495053454E4420666172
:10182000696C65640D0A000053454E44204F4B001F
:1018300045535030312053454E44206661696C65F4
:10184000640D0A0045535030312075706C6F61642F
:10185000206F6B0D0A0000002DE9F0470C4605468D
:101860000FF2700A0FF274090FF2780808E000BF57
:1018700038465146FEF78AFC90B1002600270FB388
:101880001CB300F051FA002D0746F1D03846294626
:10189000FEF77CFC0028EBD000270126EFE700BF15
:1018A00038464946FEF772FC0028E6D138464146E4
:1018B000FEF76CFC0028E0D10120012700F0A2FB1C
:1018C000013CDCE7F0B2BDE8F0870026F0B2BDE8ED
:1018D000F08700BF4552524F520000004641494C2C
:1018E000000000006275737900000000CA7802F001
:1018F0000F0CD30644BF8B784CEA030C2DE9F0475C
:1019000009880B0625D082465AF8144B00F1100EB8
:1019100000254FF001094FF00F08002706E000BF37
:101920001E600137082F05F1040511D009FA07F6EA
:101930000E42F6D008FA05F324EA03030CFA05F484
:101940001C43282A5346EBD0482AEAD17346E7E7DE
:101950000460B1F5807F38BFBDE8F087436800F1CF
:10196000100E00F1140900254FF4807A4FF00F0893
:10197000002705E034600137082F05F1040512D077
:101980000AFA07F404EA0106A642F4D108FA05F6B9
:10199000B3430CFA05F63343282A4E46EAD0482AC8
:1019A000E9D17646E6E74360BDE8F087C0680840C5
:1019B00018BF012070470000416170470161704706
:1019C000FEE70000FEE700007047000010B5C17898
:1019D00000294EF20011CEF200011AD04EF60C5240
:1019E000CEF200021268072323EA12220F23C2F16B
:1019F000040C23FA02F24378847890F800E003FAAA
:101A00000CF322401A43120101EB0E0383F800236A
:101A100000E080310078012300F01F0203FA02F297
:101A2000C0F3421041F8202010BD000070470000B4
:101A3000002941F21401C4F202010A680CBF22EA33
:101A40000000104308607047002941F21C01C4F2F5
:101A500002010A680CBF22EA0000104308607047C8
:101A6000002941F21001C4F202010A680CBF22EA07
:101A70000000104308607047002941F21801C4F2C9
:101A800002010A680CBF22EA000010430860704798
:101A9000002941F20C01C4F202010A680CBF22EADB
:101AA000000010430860704710B541F20404C4F20E
:101AB0000204226802F00C02082A41F20022C0F25D
:101AC0007A0212D12368D4F800C0C3F3834E5FEAD0
:101AD000CC330EF1020C02D523689B0303D540F6EC
:101AE0000012C0F23D020CFB02F20260226843F2D7
:101AF0002C03C2F30312C0F600039A5C0168D140C4
:101B000041602268C2F302229A5C21FA02F28260EA
:101B10002268C2F3C2229A5C43F22803D140C1601A
:101B20002268C0F60003C2F381329A5CB1FBF2F185
:101B3000016110BD704700004EF21001CEF20001AD
:101B40000A68042822F0040208BF04320A607047C1
:101B50007047000082B041F20400C4F2020050F865
:101B6000041C002241F0010140F8041C0168CFF67A
:101B7000FF021140016050F8041C4FF6FF72CFF6CF
:101B8000F662114040F8041C50F8041C21F4802136
:101B900040F8041C016821F4FE0101604FF41F01AC
:101BA000416000210191009150F8041C41F4803102
:101BB00040F8041C50F8041C01F400310091019914
:101BC00001310191009919B90199B1F5A06FF1D1D5
:101BD00050F8041C890354BF002101210091009991
:101BE000012936D142F20001C4F202010A6842F032
:101BF00010020A600A6822F003020A600A6842F0D2
:101C000002020A600168016001680160016841F434
:101C100080610160016821F47C110160016841F478
:101C2000E811016050F8041C41F0807140F8041C78
:101C300050F8041C8901FBD5016821F00301016003
:101C4000016841F002010160016801F00C010829FE
:101C5000FAD14EF60850CEF200004FF0006101605C
:101C600002B0704780B54FF08040012100F040F88D
:101C7000002808BF80BD40F2FE51C2F20001087882
:101C8000B0FA80F0420940F2FF50C2F2000003783F
:101C90000A7048F2B011C4F221213BB10A68C2F1C6
:101CA00001020A6001780139017001E0002008603A
:101CB0004FF080400121BDE8804000F015B80000E1
:101CC00010B540F20044C4F200042046012100F0A7
:101CD0000FF8002808BF10BD2046012100F004F8CD
:101CE000BDE8104000F0CAB9C94301827047000046
:101CF000028A80890A4000EA010018BF01220028F8
:101D000018BF01201040704780B540F22000C2F299
:101D100000004FF47A71FEF72EFA40F20840C2F24A
:101D200000000021018080BD40F22000C2F20000CE
:101D30007047000070B544F20044C4F2000420462D
:101D4000082100F0C3F8012806D12046082100F040
:101D500057F8204600F04CF9204640F2255100F09B
:101D6000BBF840F20845C2F20005C8B12E882046F3
:101D70006FF3DF3600F03CF940F2E6318E4208D8CE
:101D800040F22001C2F20001721C002388558B54DE
:101D90002A80C0B20A2803D1288840F40040288055
:101DA000204640F2244100F097F8002808BF70BD9B
:101DB0002088A088288840F40040288070BD00005A
:101DC000F0B581B044F20044C4F2000481B10D4684
:101DD000064600272046802100F078F80028F9D038
:101DE000F15D204600F008F90137AF42F2D100BFA3
:101DF0002046402100F06AF80028F9D001B0F0BD7B
:101E0000C9430180704700008289002918BF012161
:101E100022F4005242EA41318181704780B544F694
:101E2000FF31C4F2000188421EDD44F60041C4F2D5
:101E3000000188422CD045F20001C4F20001884222
:101E40002ED043F60001C4F20101884218BF80BDC4
:101E50004FF480400121FFF71BFE4FF4804000212A
:101E6000BDE88040FFF714BE44F20041C4F2000117
:101E700088421DD044F60001C4F20001884223D1FB
:101E80004FF480200121FFF7EBFD4FF4802016E096
:101E90004FF400200121FFF7E3FD4FF400200EE096
:101EA0004FF480100121FFF7DBFD4FF4801006E0B6
:101EB0004FF400300121FFF7D3FD4FF40030002133
:101EC000BDE88040FFF7CCBD80BD00000088084021
:101ED00018BF012070470000C1F34212022A06D049
:101EE000012A14BF00F1140200F10C0201E000F11C
:101EF00010021288008801F01F03090ADA40C84066
:101F0000104000F001007047C1F3421301F01F0CB4
:101F10001421022B08BF1021012B4FF0010308BF31
:101F20000C21002A03FA0CF243580CBF23EA0202E8
:101F30001A4342507047000070B586B00446008ACC
:101F40000D46C98820F4405008432082A0894EF6EF
:101F5000F3110840A9882A896B8908431043184364
:101F6000A081A08AA98920F44070084301AEA08214
:101F70003046FFF799FD43F6000106F10800C4F270
:101F800001018C4208BF06F10C0000681922B4F967
:101F90000C1050432A680123B1F1FF3FC8BF022350
:101FA00002FA03F1B0FBF1F048F21F51C5F2EB1158
:101FB000A0FB01235A096FF0630302FB0300B4F98D
:101FC0000C300326B3F1FF3FC8BF042600FA06F029
:101FD00000F13200A0FB01014FF00700C8BF0F2045
:101FE00000EA511040EA0210208106B070BD0000E6
:101FF00080886FF35F2070476FF35F2181807047A7
:10200000FEE7000040F20061C2F200010A884EF2D1
:102010001001CEF20001504348600020886008683B
:1020200040F00100086000BF086800F001100128BE
:10203000FAD0086820F0010008600020886070472E
:1020400040F20261C2F200010A784EF21001CEF2B3
:1020500000015043486000208860086840F001009B
:10206000086000BF086800F001100128FAD0086875
:1020700020F00100086000208860704740F20C608A
:10208000C2F200000168013101607047B6B041F250
:102090000004C4F20104FFF725F9C820FFF7B2FFDE
:1020A00010200121FFF7E8FC42F20000C1F202001B
:1020B000169016A92046FFF719FC20464FF4005150
:1020C000FFF77CFC4FF4E130FFF7B2F80FF29440D9
:1020D000FFF7E4F8FEF796FCFEF7A0FF0FF2B4411D
:1020E0000FF29842002808BF11460846FFF7D6F8BD
:1020F0004FF4165000F092FA002041F28837002485
:102100004FF0000A4FF000084FF0000900250026AC
:10211000159005E01420FFF775FF15981430159001
:102120001598A0EB0900B0F5FA7F1DD341F200002D
:10213000C4F201004FF40051FFF738FC012809D127
:1021400041F20000C4F201004FF40051FFF734FCEB
:1021500008E000BF41F20000C4F201004FF400515A
:10216000FFF72CFCDDF854901598001BB0F57A7F32
:10217000C0F0B981CDE9128640F208081495C2F288
:102180000008B8F80200FEF770F943F23335C4F2E4
:1021900053052946FEF76BF84FF20007C4F27F574C
:1021A0003946FEF796F8CDF8449040F2180942F20D
:1021B0009611C2F20009CCF2B801C9F80000FEF78E
:1021C00056F843F66431C4F28511FDF7F8FF00219B
:1021D000C4F260110446FEF73AF900281CBF00243F
:1021E000C4F2601420460021FEF723F9002818BF2E
:1021F000002440F21000CDF840A040F2140AC2F2D0
:102200000000C2F2000A0460CAF80040B8F80000FA
:10221000FEF72BF92946FEF72AF80021CBF68011AC
:10222000FEF725F846F68531C4F25841FEF71FF84F
:102230004EF21461C4F2FF41FDF7C1FF0021CCF260
:102240004831FDF7BCFF0021C4F20C210446FEF723
:10225000F0F8002840F21060C2F2000018BF00241D
:10226000046040F21460C2F200000460B8F8040098
:10227000FEF7FBF83946FEF72CF82946FDF7F7FF85
:1022800046F68531C4F285210446FDF7F0FF01468C
:102290002046FDF7ECFF4DF6294105462046CCF2DD
:1022A000FF21FDF7E4FF01462046FDF7E0FF07466A
:1022B00028462146FDF7DBFF3946FDF780FF45F64E
:1022C0009A1105462046C4F2D631FDF7D0FF2946C3
:1022D000FDF775FF0021C4F2A0110446FEF7A9F82E
:1022E000002840F21C00C2F2000018BF0024046065
:1022F000FEF75CFD40F20461C2F20001088080B28A
:10230000FEF7B3F840F2000BC4F2201B5946FDF76C
:10231000E0FF0446DAF8005040F20860C2F2000024
:10232000046028460021FEF784F8074628465946EF
:10233000FDF79DFF4FF07C51002F18BF4FF03F413C
:10234000FDF73DFFFEF7A7F8D9F8001082460846D2
:102350000021C4F2C821FDF78AFF00210546FEF7DF
:1023600068F8074628465946FDF781FF4FF07C5133
:10237000002F18BF4FF03F41FDF721FFFEF78BF80C
:10238000074620465946FDF772FF4FF07C51FDF796
:1023900016FFFEF780F844F6D353C1F262030546F8
:1023A000B8F80000A7FB031287FB03134CF6CD41DE
:1023B0000F90CCF6CC41B8F80200AAFB011646F209
:1023C00067610D90C6F26661B8F804008AFB0114DB
:1023D0000E9090094FF47A7100FB1179981100EB7F
:1023E000D3700C904843002F48BFA0EB0709B8F802
:1023F000020040F21C010B90F00800EB8000AAEBF9
:10240000400BA010C2F2000100EBD4780E6808EB7C
:102410008800BAF1000F48BFCAEB400BDDF840A0BE
:1024200030464FF07C51FDF7CAFEFEF74DF80746E7
:1024300030460021FEF70BF840F21461C2F20001B1
:102440000E68002808BF074630464FF07C51FDF764
:10245000B6FEFEF739F8044630460021FDF7F7FFD7
:102460004CF6CD41CCF6CC41A5FB011246F267619A
:10247000C6F2666185FB0113002808BF0446D00838
:1024800000EB80009910A5EB400001EBD37101EB4C
:102490008102002D48BFC5EB42000A900D98CDE99E
:1024A000084100900E9816AC01900B9843F23C0244
:1024B00002900C980F9BCDE90309DDF84490CDF80C
:1024C0001480DDE91286149D20468021C0F60002AA
:1024D000CDF818B0079741F2883700F0FDF8204694
:1024E000FEF7DCFE159C1598A0EB0A00B8420ED34F
:1024F0002DB1300609D1FEF7DDFF064605E0FEF7F7
:1025000013FF0546002808BF0646DDF854A0002D3D
:1025100018BF5FEA06603FF4FDAD159843F69821B9
:10252000A0EB08008842FFF4F5AD40F21C00C2F2B7
:102530000000036840F20860C2F20000026840F246
:102540001460C2F20000016840F21400C2F2000000
:102550000068FFF723F8002808BF0646DDF854801E
:10256000D8E500BF0D0A41542073656E736F722069
:102570006E6F646520626F6F740D0A0044533138CA
:10258000423230207265616479206F6E2050423192
:102590000D0A000044533138423230206E6F7420EF
:1025A000666F756E64206F6E205042310D0A000018
:1025B00083B0F0B582B040F20A45844607A8C2F263
:1025C00000050EC044F2004407AB28464FF4FA71F0
:1025D0006246C4F20004019300F098F8002600BFA0
:1025E000A85D78B120468021FFF770FC0028F9D063
:1025F000A95D2046771CFFF7FFFCB6F5F97F3E4644
:10260000EED900BF20464021FFF760FC0028F9D03A
:1026100002B0BDE8F04003B0704700002DE9F04182
:1026200086B00546042001214FF00408FFF724FA84
:102630004FF400300121FFF707FA44F20044C4F2DE
:1026400000042046FFF7EAFB0420C1F6030004F56E
:10265000444604AF049030463946FFF747F9082056
:10266000ADF81000304639468DF81380FFF73EF97B
:102670002620C0F20110059005A8FFF7A7F94FF436
:102680004020009500250290694620460195ADF84E
:102690000C50FFF751FC204640F225510122FFF774
:1026A00033FC204640F224410122FFF72DFC204656
:1026B0000121FFF7A9FB40F22000C2F200004FF415
:1026C0007A71FDF758FD40F20840C2F20000058023
:1026D00006B0BDE8F08100000FB47CB50C0009AD78
:1026E00001D0611E00E00021CDE90001064B6A46E1
:1026F0002946089800F0F6F8002C02D0009A002134
:1027000011707CBC5DF814FB133000087CB50C0024
:102710001D461646014601D0601E00E00020CDE9AE
:102720000010064B6A462946304600F0DBF8002CC4
:1027300002D0009A002111707CBD00001330000807
:1027400002E008C8121F08C1002AFAD1704770477A
:10275000002001E001C1121F002AFBD170470000D8
:102760002DE9FF5F82B00021DDE90430020DDDF8C4
:1027700040B0034318D044F61050A2F2FF32424357
:102780001514119801281FD0A5EB0B00401C5FEA1F
:10279000000A4FF000064E4FDFF83891B046504621
:1027A00015D5CAF1000413E0119801244AA30128A9
:1027B00001D16FEA0B010298119AC0E90031C0E91A
:1027C000024206B0BDE8F09FCBF10000DFE704460F
:1027D0000021404A491842EB0450CDE9001012E0B4
:1027E000E00707D032463B4640464946FDF7AFFD7D
:1027F0008046894632463B4610461946FDF7A7FDFE
:1028000006460F466410002CEAD1DDE90401DDE93B
:102810000023BAF1000F06DAFDF799FD42464B4658
:10282000FDF795FD05E0FEF714F842464B46FEF72E
:1028300010F804460E460022284BFEF791F803D804
:102840004FF0FF30014607E00022254B204631467D
:10285000FDF758FFFEF76CF8102409E0002C0ADBA6
:102860000A220023FDF779FE039B30321A55641EBD
:1028700050EA0102F2D1641C039AC4F1110314441A
:10288000119A012A03D0012208430DD10AE008431E
:1028900004D000204FF0110B119072E7A3EB0B0551
:1028A0006D1E0DE05B4504DD4FF0000205F10105F2
:1028B00004E003DA4FF00002A5F10105002AECD094
:1028C00002981199C0E90231C0E9004579E700009A
:1028D000000014400000F03F300000000000F04312
:1028E0000000E03F2DE9FF4F95B09B468946064624
:1028F00000250FE2252877D100242746F84A012138
:10290000059400E0044316F8013F203B01FA03F070
:102910001042F7D130782A2811D06FF02F03307889
:10292000A0F13002092A16D8059A44F0020402EBFD
:10293000820203EB42021044761C0590EFE759F83F
:10294000042B0592002A03DA504244F40054059007
:1029500044F00204761C30782E2816D116F8010FA8
:1029600044F004042A280DD06FF02F023078A0F133
:102970003003092B09D807EB870302EB4303C71881
:10298000761CF3E759F8047B761C30786C280FD05E
:1029900006DC4C2817D068280DD06A2814D104E032
:1029A000742810D07A280FD10DE044F400140AE006
:1029B00044F4801401E044F440147278824202D15D
:1029C00004F58014761C761C307866280BD013DC56
:1029D000582877D009DC002875D04528F6D046283D
:1029E000F4D047281AD19DE118E0632835D0642837
:1029F00079D0652812D195E1702873D008DC67285A
:102A0000F1D069286FD06E280DD06F2806D1B5E0BF
:102A100073282CD0752875D0782874D05A46179909
:102A200090476D1C75E1C4F30250022809D00328B9
:102A30000DD0D9F8001004280DD00D6009F104095B
:102A400067E1D9F80010EA17C1E90052F6E7D9F8B2
:102A500000100D80F2E70D70F0E719F8041B8DF8F7
:102A6000001000208DF80100EA46012003E059F82B
:102A700004AB4FF0FF3061074FF0000102D40DE0CE
:102A800008F101018846B9420FDA8045F8DB1AF8EF
:102A900008100029F4D108E008F1010188468142BC
:102AA000FADB1AF808100029F6D105985B46A0EB6E
:102AB000080721463846179A00F094FA284400EB9C
:102AC000080507E04DE029E10DE01AF8010B5A4630
:102AD00017999047B8F10108F7D25B46214638466E
:102AE000179A13E142E00A220092C4F302524FF017
:102AF000000A022A08D059F804CB032A4FEAEC71E5
:102B00000AD00DE029E02AE009F1070121F00702CF
:102B1000F2E802C1914609E00FFA8CFC4FEAEC7131
:102B2000042A03D14FFA8CFC4FEAEC71002907DA32
:102B30000A460021DCF1000C61EB02012D2202E0CB
:102B4000220504D52B228DF80420012203E0E207A0
:102B500001D02022F7E7904659E00A2102E0102236
:102B60000DE010214FF0000A00910BE010224FF011
:102B7000000A44F004040827009203E008224FF002
:102B8000000A0092C4F30252022A05D059F804CB7D
:102B90000021032A08D009E009F1070121F007020A
:102BA000F2E802C1914605E01FFA8CFC042A01D12B
:102BB0000CF0FF0C4FF00008220728D5702806D033
:102BC000009B83F0100353EA0A0305D00EE0402275
:102BD0008DF80420012208E05CEA010206D03022D0
:102BE0008DF804208DF8050002229046009B83F0AA
:102BF000080353EA0A030AD15CEA010201D1620721
:102C000005D530228DF804204FF001087F1E58288A
:102C100004D034A003900EA802900DE036A0F9E78E
:102C200053466046009AFDF798FC84460398825C00
:102C30000298401E029002705CEA0100F0D10298F6
:102C400006A9081A00F1200A600702D524F480348E
:102C500000E00127574502DDA7EB0A0000E0002055
:102C600000EB0A01009005984144401A0590E003EA
:102C700006D45B462146179A059800F0B3F905443F
:102C8000002706E001A85A46C05D179990476D1CC1
:102C90007F1C4745F6DBE0030CD55B462146179ABF
:102CA000059800F09FF9054404E030205A46179932
:102CB00090476D1C0099481E00900029F5DC08E043
:102CC000029802995A460078491C02911799904738
:102CD0006D1CBAF10001AAF1010AF1DC65E1000006
:102CE00009280100303132333435363738396162E2
:102CF00063646566000000003031323334353637A6
:102D000038394142434445460000000000F058F97C
:102D10000544761C307800287FF4ECAD19B02846C5
:102D2000BDE8F08F620700D4062709F1070222F000
:102D3000070CFCE80223E14603F000485FEA080CB8
:102D400002D00FF2702C0DE05FEA045C02D50FF2A6
:102D5000682C07E05FEAC47C02D00FF2602C01E02F
:102D6000AFF2700C4FF0FF3823F00043CDF850C0A5
:102D700065280CD006DC452809D046281DD04728F8
:102D80003DD13DE0662818D067287ED138E000218B
:102D9000112F01DB112000E0781CCDE9000106A90C
:102DA0000EA8FFF7DDFCDDE90F010E9A039100216B
:102DB000009207F1010A04914DE04FF000400097A6
:102DC000CDE9011006A90EA8FFF7CAFCDDE90F0244
:102DD00003920E9B11990022DDF80CA0009304923F
:102DE00011B9791C00EB010AB7EB0A0004D4C0F159
:102DF000FF3007F1010A0490AAEB0700019044E0BC
:102E0000012F00DA01270021112F01DD112000E040
:102E10003846CDE9000106A90EA8FFF7A1FCDDE9BF
:102E20000F010E9A0391002104910092BA462107E6
:102E30000CD40399514500DA8A46BAF1010F05DD39
:102E4000009AAAF10101515C302908D0B84202DA97
:102E500010F1040F06DA0121CDE9011015E0AAF105
:102E60000101E9E7002805DC049901440491AAEB7B
:102E7000000102E0411C514500DD8A460499401AD8
:102E8000401C01904FF000400290200704D40198AC
:102E9000504501DBCDF8048000208DF84F000298EA
:102EA0000DF14F07B0F1004F25D02B200E90029866
:102EB0004FF0020800280CDA404202902D200E90BC
:102EC00007E00A210298FDF732FB3031029007F843
:102ED000011DB8F10001A8F10108F2DC02980028F8
:102EE000EFD1791E0E980870307800F0200040F085
:102EF000450007F8020D12A8C01B00F1070814983E
:102F0000007800B1012000EB0A01019801EBE071AB
:102F100005984144401A401E0590E00306D45B46E4
:102F20002146179A059800F05DF80544149800783A
:102F300018B15A46179990476D1CE00324D55B469B
:102F40002146179A059800F04DF805441CE00498B6
:102F5000002807DBDDE90301884203DD0098405CBF
:102F6000179901E0179930205A469047049805F1C7
:102F70000105401C04900198401E019004D12E20B0
:102F80005A46179990476D1CBAF10001AAF1010A3F
:102F9000DDDC05E017F8010B5A46179990476D1CC8
:102FA000B8F10001A8F10108F4DC5B462146179A4C
:102FB0000598ABE62D0000002B000000200000006B
:102FC0002DE9F041044600251E461746880404D426
:102FD00005E039462020B0476D1C641EF9D528460F
:102FE000BDE8F0812DE9F041044600251E469046DB
:102FF000C80301D5302700E02027880404D505E068
:1030000041463846B0476D1C641EF9D52846BDE8D8
:10301000F0814A68002A06D00A68531C0B601070C1
:103020004868401E4860704702040608000000001F
:103030000102030401020304060708094144435B3B
:1030400025752C25752C25755D2050485F4144431E
:103050003D25752050485F563D256C642E25303344
:103060006C642050483D256C642E2530316C642002
:103070005444533D256C7520547572623D256C7522
:103080002054656D703D256C642E2530316C640DC7
:103090000A004745542025733F70683D256C642E17
:1030A0002530316C64267464733D256C7526747507
:1030B00072623D256C752674656D703D256C642EBD
:1030C0002530316C6420485454502F312E310D0A74
:1030D000486F73743A2025730D0A436F6E6E6563F3
:1030E00074696F6E3A20636C6F73650D0A0D0A0088
:1030F0004553503031206E6F2041542072657370FB
:103100006F6E73652E20436865636B206261756422
:103110002C20454E20616E6420776972696E672E9F
:103120000D0A0025730D0A003139322E3136382E42
:10313000312E330041542B434950434C4F534500EB
:103140004F4B00006831000800000020080000001C
:10315000402700087031000808000020100A000015
:10316000502700080000000000A24A0400000000F0
:0400000508000131BD
:00000001FF
