:020000040800F2
:10000000D813002015020008110800087507000821
:100010000D08000893050008DB0F00080000000031
:10002000000000000000000000000000310D00088A
:100030009705000800000000D70C0008910E00088A
:100040002F0200082F0200082F0200082F020008CC
:100050002F0200082F0200082F0200082F020008BC
:100060002F0200082F0200082F0200082F020008AC
:100070002F0200082F0200082F0200082F0200089C
:100080002F0200082F0200082F0200082F0200088C
:100090002F0200082F0200082F0200082F0200087C
:1000A0002F0200082F0200082F0200082F0200086C
:1000B0002F0200082F0200082F0200082F0200085C
:1000C0002F0200082F0200082F0200082F0200084C
:1000D0002F020008F50E00082F0200082F0200086A
:1000E0002F0200082F0200082F0200082F0200082C
:1000F0002F0200082F0200082F0200082F0200081C
:100100002F0200082F0200082F0200082F0200080B
:100110002F0200082F0200082F0200082F020008FB
:100120002F0200082F0200082F0200082F020008EB
:1001300000F002F800F05EF80AA090E8000C82449B
:100140008344AAF10107DA4501D100F053F8AFF278
:10015000090EBAE80F0013F0010F18BFFB1A43F0A5
:1001600001031847DC370000FC37000010F8013BA2
:100170000A4413F0030408BF10F8014B1D1108BF17
:1001800010F8015B641E05D010F8016B641E01F8C5
:10019000016BF9D1002D15D010F8014B03F00C03C1
:1001A0000C2BA1EB04040ABF10F8013BA4EB831451
:1001B000A4EB032405F1010314F8016B5B1E01F8A5
:1001C000016BF9D5914238BF10F8013BD1D370478C
:1001D0000023002400250026103A28BF78C1FBD850
:1001E000520728BF30C148BF0B6070471FB51FBD05
:1001F00010B510BD00F033F81146FFF7F7FF00F01F
:100200005FFF00F051F803B4FFF7F2FF03BC00F00A
:10021000E6FE00000948804709480047FEE7FEE780
:10022000FEE7FEE7FEE7FEE7FEE7FEE7FEE7FEE7A6
:1002300004480549054A064B70470000950E000822
:1002400031010008D80D0020D8130020D80F00205D
:10025000D80F002070477047704770477047754649
:1002600000F02CF8AE4605006946534620F0070022
:10027000854618B020B5FFF7DBFFBDE820404FF002
:1002800000064FF000074FF000084FF0000B21F080
:100290000701AC46ACE8C009ACE8C009ACE8C0094D
:1002A000ACE8C0098D46704710B50446AFF3008036
:1002B0002046BDE81040FFF7A6BF00000048704789
:1002C000740D002021B1826842F00102826003E0D7
:1002D000826822F0010282607047000010B5402160
:1002E000012000F019FA00EB4014E01704EB105065
:1002F00000130149088010BD2A08002010B54021D4
:10030000002000F009FA0149088010BD28080020EB
:1003100010B504461248844208D10121401500F06E
:10032000F7FC0021601500F0F3FC17E00D48844253
:1003300008D10121001500F0EBFC0021201500F090
:10034000E7FC0BE00848844208D10121C80300F013
:10035000DFFC00214FF4004000F0DAFC10BD00008B
:100360000024014000280140003C014001460020DB
:100370008A6802F004020AB1012000E00020704700
:100380000146C86C80B270470246002013680B40DB
:100390000BB1012000E000207047014600208A6870
:1003A00002F008020AB1012000E00020704710B5F9
:1003B0000023CBB21AB144681C43446002E0446895
:1003C0009C43446010BD000030B50246002000236D
:1003D00050680F4C20400D790C6844EA05242043F6
:1003E000506090680B4C2040D1E902542C434D7969
:1003F00044EA450420439060D06A20F470000C7CED
:10040000641EE4B2234340EA0350D06230BD0000D2
:10041000FFFEF0FFFDF7F1FF00B587B001214FF4BB
:10042000077000F065FC4FF4004000F055FC03201D
:10043000ADF8040000208DF8070001A91A4800F06B
:10044000C1F81A48FFF764FF002002908DF80C00F5
:100450008DF80D004FF460200490002005900120DD
:100460008DF8180002A91148FFF7AEFF01224FF4E2
:1004700008710E48FFF79BFF01210C48FFF722FF90
:100480000A4800F071F800BF0848FFF786FF00280F
:10049000FAD1064800F078F800BF0448FFF766FF7D
:1004A0000028FAD107B000BD000801400024014037
:1004B000F0B504460D4600200021092D11DDE0684D
:1004C000A5F10A0606EB4607072606FA07F1884358
:1004D000A5F10A0606EB460603FA06F10843E060BA
:1004E0000CE0206905EB4507072606FA07F188436B
:1004F00005EB450603FA06F108432061072A0FDAE7
:10050000606B561E06EB86071F2606FA07F1884326
:10051000561E06EB860605FA06F10843606322E0E4
:100520000D2A0FDA206BD61F06EB86071F2606FA68
:1005300007F18843D61F06EB860605FA06F1084345
:10054000206310E0E06AA2F10D0606EB86071F2685
:1005500006FA07F18843A2F10D0606EB860605FAB6
:1005600006F10843E062F0BD816841F00801816056
:10057000704721B1826842F4A002826003E0826881
:1005800022F4A00282607047816841F0040181601A
:10059000704700BFFEE7704708B50121042000F056
:1005A000A7FB8020ADF8000010208DF80300032089
:1005B0008DF802006946024800F004F808BD00000A
:1005C000000801402DE9F0410246002500260020E8
:1005D00000230024002791F803C00CF00F0591F8C8
:1005E00003C00CF0100CBCF1000F03D091F802C056
:1005F0004CEA050591F800C0BCF1000F31D0146839
:1006000000202BE04FF0010C0CFA00F3B1F800C011
:100610000CEA03069E4220D183004FF00F0C0CFA27
:1006200003F7BC4305FA03FC4CEA040491F803C049
:10063000BCF1280F06D14FF0010C0CFA00FCC2F8F7
:1006400014C00AE091F803C0BCF1480F05D14FF087
:10065000010C0CFA00FCC2F810C0401C0828D1D3D1
:100660001460B1F800C0BCF1FF0F34DD5468002005
:100670002EE000F1080C4FF0010808FA0CF3B1F875
:1006800000C00CEA03069E4221D183004FF00F0CFC
:100690000CFA03F7BC4305FA03FC4CEA040491F896
:1006A00003C0BCF1280F05D100F1080C08FA0CF8C2
:1006B000C2F8148091F803C0BCF1480F07D100F1D3
:1006C000080C4FF0010808FA0CF8C2F81080401C22
:1006D0000828CED35460BDE8F081416170470161C4
:1006E0007047000010B5044607230122214609483F
:1006F000FFF7DEFE01210748FFF73BFF00BF0221A5
:100700000448FFF741FE0028F9D00248FFF738FE01
:1007100010BD0000002401402DE9F04107460C46C1
:100720000025002600BF08E03846FFF7DBFF054440
:100730000A2000F09FFC701CC6B2A642F4DB022C1B
:1007400000D16D08042C00D1AD08082C00D1ED08B3
:10075000102C00D12D09202C00D16D09402C00D186
:10076000AD09802C00D1ED09FF2C00D12D0AA8B2D3
:10077000BDE8F08100BFFEE710B540210A48FFF751
:10078000AEFF80210848FFF7AAFF00F037F84021AC
:100790000548FFF7A2FF00F031F880210248FFF77B
:1007A0009CFF00F02BF810BD000C014010B540215B
:1007B0000648FFF792FF80210448FFF790FF00F002
:1007C0001DF840210148FFF78AFF10BD000C0140D1
:1007D00010B540210848FFF782FF00F00FF8802194
:1007E0000548FFF77CFF00F009F880210248FFF779
:1007F00074FF00F003F810BD000C0140032000BF9F
:10080000011EA0F10102D0B2FAD1704700BFFEE78D
:100810007047000070B500240CE0002506E00020C1
:10082000074901EBC5010855681CC5B2802DF6DBF0
:10083000601CC4B2082CF0DB00F0F4F870BD0000BE
:100840002C08002010B504461CB90021A62000F099
:1008500026FA012C03D10021A72000F020FA10BDB8
:1008600010B504463CB90021C82000F018FA002158
:10087000A12000F014FA012C07D10021C02000F0C3
:100880000EFA0021A02000F00AFA10BDF0B51446BF
:100890000B46CF1701EB5777C7F3C702CF1701EB12
:1008A0005777FF10A1EBC707FEB20123B340DDB2BB
:1008B0004CB1134B03EBC0039B5C2B43104F07EB76
:1008C000C007BB541AE00E4B03EBC0039B5CDB4339
:1008D0000B4F07EBC007BB54094B03EBC0039B5CFA
:1008E0002B43074F07EBC007BB54054B03EBC0037B
:1008F0009B5CDB43024F07EBC007BB54F0BD00001D
:100900002C08002008B50121082000F0F1F9C020D2
:10091000ADF8000014208DF8030003208DF80200CC
:1009200069463948FFF74EFEC0213748FFF7D7FE2A
:100930000021AE2000F0B3F90021084600F0AFF925
:100940000021102000F0ABF90021402000F0A7F9B1
:100950000021812000F0A3F90021CF2000F09FF9B1
:100960000021A12000F09BF90021C82000F097F998
:100970000021A62000F093F90021A82000F08FF9B3
:1009800000213F2000F08BF90021D32000F087F9EF
:100990000021084600F083F90021D52000F07FF9FE
:1009A0000021802000F07BF90021D92000F077F9A8
:1009B0000021F12000F073F90021DA2000F06FF936
:1009C0000021122000F06BF90021DB2000F067F914
:1009D0000021302000F063F90021202000F05FF9B1
:1009E0000021022000F05BF900218D2000F057F972
:1009F0000021142000F053F9FFF70CFF0021AF2075
:100A000000F04DF908BD0000000C014010B5024691
:100A1000012000E050430B1EA1F10104E1B2F9D125
:100A200010BD000070B500242BE004F1B001C8B285
:100A3000002100F034F90021084600F030F90021CF
:100A4000102000F02CF9FFF797FE782000F072F9E3
:100A5000FFF7BEFE402000F06DF9FFF7B9FE00255C
:100A600009E0094901EBC501085D00F063F9FFF7F2
:100A7000AFFE681CC5B2802DF3DBFFF797FE601C4C
:100A8000C4B2082CD1DB70BD2C0800202DE9FE4F2C
:100A90000746884692461C460197CDF80080082CF0
:100AA00002D14FF006091FE02046E31704EB537311
:100AB000DB1021464FEAE47C04EB5C7C4FEAEC0C53
:100AC000A4EBCC0CBCF1000F02D04FF0010C01E004
:100AD0004FF0000C6344224604EBD27C4FEA6C0CCE
:100AE00003FB0CF303F0FF09AAF12000C6B20025B6
:100AF0005EE0082C07D106EB46002F4901EB4000D1
:100B000010F805B01DE00C2C07D106EB46002B4970
:100B100001EB800010F805B013E0102C05D1284837
:100B200000EB061010F805B00BE0182C07D106EB0F
:100B3000C600244901EB800010F805B001E0BDE8D3
:100B4000FE8F002002901CE00BF0010028B141460E
:100B500038460C9AFFF79AFE09E00C9808B9012074
:100B600000E00020024641463846FFF78FFE4FEA7C
:100B70006B0B08F1010000F0FF080298401CC0B2A6
:100B8000029002980828DFDB781CC7B2082C0BD033
:100B900004EBD4714A100199791A8A4204D1019F59
:100BA00000980830C0B20090DDF80080681CC5B223
:100BB0004D459EDB00BFC2E72E1B0008561D0008F6
:100BC000CA210008BA2700082DE9FF4F82B0064667
:100BD00091461F46DDE90F4A4FF0000B082C01D16A
:100BE0004FF0020B002530E0781B401EC1B20A20F6
:100BF000FFF70CFFB9FBF0F00A21B0FBF1F201FBAB
:100C00001208B8F1000F0ED104EBD4710BEB6101A7
:100C100001FB0561C8B223463022CDE900A4039947
:100C2000FFF734FF0FE004EBD4710BEB610101FB24
:100C30000561C8B208F13001CAB22346CDE900A46B
:100C40000399FFF723FF681CC5B2BD42CCDB06B099
:100C5000BDE8F08F2DE9F84106460F4614461D46C3
:100C6000DDF81C8013E0CDF8008022782B46394651
:100C70003046FFF70BFF082D02D1B01DC6B205E0CC
:100C8000284605EBD07106EB6101CEB2641C2078DA
:100C9000202802DB20787E28E5DDBDE8F88170B5EC
:100CA00005460C46FFF768FD782000F043F8FFF793
:100CB0008FFD1CB1402000F03DF802E0002000F064
:100CC00039F8FFF785FD284600F034F8FFF780FD7E
:100CD000FFF76CFD70BD704701460020034A506865
:100CE00020F440400843506070470000001002406C
:100CF00029B1064A92690243044B9A6104E0034A0F
:100D000092698243014B9A617047000000100240D3
:100D100029B1064AD2680243044BDA6004E0034A70
:100D2000D2688243014BDA60704700000010024035
:100D30007047000070B5044600251BE004F08000F9
:100D400020B140210D48FFF7CAFC03E040210B48C9
:100D5000FFF7C3FCFFF752FD80210848FFF7BFFCF7
:100D6000FFF74CFD80210548FFF7B7FC6006040E35
:100D7000681CC5B2082DE1DB70BD0000000C01400D
:100D800010B500F001F810BD0CB5002001900090E6
:100D90003348006840F480303149086000BF304873
:100DA000006800F4003000900198401C0190009809
:100DB00018B90198B0F5A06FF1D12948006800F486
:100DC000003010B10120009001E000200090009858
:100DD000012843D12348006840F0100021490860F1
:100DE0000846006820F0030008600846006840F0EC
:100DF000020008601A48406819494860084640687F
:100E000048600846406840F4806048600846406892
:100E100020F47C1048600846406840F4E8104860C0
:100E20000846006840F08070086000BF0C48006809
:100E300000F000700028F9D00948406820F0030055
:100E4000074948600846406840F00200486000BF1B
:100E50000348406800F00C000828F9D10CBD0000E0
:100E60000010024000200240042808D14FF0E02189
:100E7000096941F004014FF0E022116107E04FF0F1
:100E8000E021096921F004014FF0E022116170476F
:100E90007047000010B51348006840F00100114988
:100EA000086008464068104908400E4948600846F6
:100EB00000680E4908400B4908600846006820F4A5
:100EC000802008600846406820F4FE0048604FF427
:100ED0001F008860FFF754FF4FF00060044908606E
:100EE00010BD0000001002400000FFF8FFFFF6FEFA
:100EF00008ED00E010B540F225511D4800F03EF825
:100F000010B31B4800F064F8C4B21A48008800F41B
:100F10000040C8B91748008800F4804060B10A2C2E
:100F200003D000201349088020E01248008840F4D4
:100F300000401049088019E00D2C06D10D480088AA
:100F400040F480400B49088010E00A480088C0F354
:100F50000D0009490C5407480088401C05490880C9
:100F600008460088C72801DD0020088010BD000069
:100F70000038014008000020AC0C002070B502468B
:100F8000002400230025002040F66A16B14200D15B
:100F900000BFC1F3421501F01F03012606FA03F357
:100FA000012D02D19689334006E0022D02D1168A26
:100FB000334001E0968A33400C12012606FA04F40D
:100FC0001688344013B10CB1012000E0002070BD40
:100FD00001468888C0F30800704700BFFEE700BFE5
:100FE0007047000010B56FF00400FFF73DFF0A489E
:100FF00000680A49B0FBF1F009490870084600781A
:1010000000EB4001C1EBC0104FF6FF7101EAC000D8
:101010000449088010BD00000C00002000127A0076
:1010200000000020020000200146114A12884A43B5
:101030004FF0E0235A6100229A611A46126942F089
:1010400001021A6100BF4FF0E022106900F00102B6
:101050001AB100F48032002AF5D04FF0E022126974
:1010600022F001024FF0E0231A6100229A617047DA
:10107000020000200146114A12784A434FF0E02353
:101080005A6100229A611A46126942F001021A61FD
:1010900000BF4FF0E022106900F001021AB100F425
:1010A0008032002AF5D04FF0E022126922F00102CE
:1010B0004FF0E0231A6100229A617047000000207F
:1010C0001CB5FFF78FFFFFF71DFC0020FFF7BAFBF1
:1010D0000020FFF7C5FBFFF75FFAFFF79DF901203E
:1010E000102350A2282100900820FFF7B3FD012013
:1010F00010234EA2282100904020FFF7ABFD0120D5
:1011000010234CA2194600900820FFF7A3FD0120F0
:1011100010232E22194600903820FFF7B7FC7FE0FD
:1011200080214648FFF7DBFAFFF77CFC0A20FFF737
:101130007BFFFFF7E3F80A20FFF776FF40490988B5
:10114000A1F19600C11700EB917189103D4A116021
:1011500010460068B0F5617F02D900201146086092
:10116000012010210323CDE9001036482821026810
:101170000846FFF729FDFFF7B1F80A20FFF754FFF3
:101180003148008800F04EF90646304A304B00F0F6
:101190005DF904462F4A304B00F09CF8804600F081
:1011A00067F82E4908602E492C48006800F040FC82
:1011B00024D22C492948006800F03CFB054600F089
:1011C00017FC04460120102102232246CDE900101D
:1011D0002820FFF7F9FC2148006800F0EDFB0A2108
:1011E00090FBF1F201FB120401201021034622467C
:1011F000CDE900104020FFF7E7FC07E001201023B5
:1012000019A2194600902820FFF724FD3220FFF78D
:101210000BFF80210948FFF760FA3220FFF704FF37
:101220007EE700005444533A000000006D672F4CE5
:10123000000000002050483A000000000008014073
:1012400028080020240800202A0800205A2A6F4776
:10125000384D16C0E17A14AE47D164402008002012
:1012600000000C430000204120202020000000004E
:1012700021F00042A2F16052B2F5801F01F000435C
:1012800028BFD2F17F6C0BD95FEA001C43EAC2028F
:1012900042EB507018BF704728BF20F00100704724
:1012A000B2F5801FBCBF184670474FEA410C1CF5D1
:1012B000001F02D2084600F035BC70B500F070F98E
:1012C00000000089FFF7F6BF4FF00040A0F5800056
:1012D0007047000010B591EA030F48BF83F0004348
:1012E00000F1BA81841A71EB030C05D2121943EB99
:1012F0000C03001B61EB0C01DFF824E14FEA1154F1
:10130000A4EB135C1EEA430F18BF9EEA445F73D040
:1013100023EA0E03DCF1200E21EA045143F480138A
:1013200032D322FA0CFE10EB0E0023FA0CFE41EB36
:101330000E01CCF1200E03FA0EFE10EB0E0051F15F
:101340000001B1F5801FCCF1200E32D201EB045127
:1013500012FA0EF2BDE8104058BF7047401C38BF6B
:101360005FEA420218BF7047002814BF20F0010056
:1013700041F100014FEA410313F5001F38BF7047E8
:10138000A1F1C04100F05AB9012A43EB0302ACF1CC
:10139000200CDCF11F0E32BF4FF0000E23FA0CF3CD
:1013A00010EB030041EB0451B4EB115FD0D0A1EB83
:1013B000045101F5801149085FEA300001EB045146
:1013C0000ED350F1000038BF12FA0EFE08D1BDE86E
:1013D0001040C9E7401C38BF5FEA4202CAD1C3E7E8
:1013E000BDE810404FEA410313F5001F38BF7047B6
:1013F000A1F1C04100F022B99EEA445F08D011EA91
:101400005E0FBDE8104004BF01F0004100207047AE
:10141000BDE8104070B500F0C3F800BF64FBBE3EED
:101420000000E0FFB0FA80F310FA03F10AD0C3F134
:101430001D0303F580634FEA41504FEA035202EB6C
:10144000D12170474FF0000070470000DFF848C11D
:1014500070B51CEA111E1EBF1CEA13159EEA0C0F84
:1014600095EA0C0F00F06F8081EA030423EA4C1325
:101470004EEAD47E21EA4C1141F4801143F48013EA
:10148000AE44A1FB024CA0FB0365AEF17F7E361992
:1014900055EB0C05A1FB034C4CF10003A0FB021C17
:1014A00016EB0C06654153F10003094218BF46F0E4
:1014B000010613F4007F0BD14FEA03314FEA0530E8
:1014C000340341EA155140EA16506FF003020AE076
:1014D0004FEAC3214FEAC520F40241EA555140EAE0
:1014E00056506FF0020202EB2E4201EB025585EAE4
:1014F000CE710AD05FEA440C18BF24F0004450F1CA
:10150000000041F1000120EAD47040F2FE7C624507
:1015100000D270BDA84214BF4FF080444FF0404449
:10152000002E08BF0024BEF1806FA8BFA1F1C0410A
:10153000BDE8704080F282804FF0000001F1C041B0
:1015400001F0004170479EEA0C0F0CEA131518BF1A
:1015500095EA0C0F06D04FF0000081EA030E0EF062
:10156000004170BD00F01CF88900013E00F007B892
:1015700000F009B84FEA430C5FEA5C5C08D081EAEE
:10158000030100F05BB84FEA410C5FEA5C5CF6D106
:101590004FF00000014970470000FF070000F87F8E
:1015A0000EF1020E2EF0030E5EF8046B364205D4E7
:1015B000012A43EB030515F5001F12D8012841EB62
:1015C000010C1CF5001F0CD80ED14FEAD17C15F58B
:1015D000001F0CEB4C0C0CF1020C08BF4CEBD37C45
:1015E00004E04FF0080C01E04FEAD37C0CEB4C0513
:1015F00026FA05F606F00706B6F1040C06D20EEB45
:10160000860CBDE870404CF0010C6047DFE80CF040
:10161000090B02024FF000414FF00000A1F500213C
:1016200070BD19461046012851EB010418BFD4F5CE
:10163000001484BF002001F0004170BD0808A0F52F
:1016400000114FEA3101704710B591EA030F48BF0E
:1016500083F000433FF546AE841A71EB030C07D2CA
:1016600012198CF0004C43EB0C03001B61EB0C01D6
:10167000DFF8A4E14FEA1154A4EB135C1EEA430F18
:1016800018BF9EEA445F00F0B08023EA6E03524226
:1016900021EA0451C3EB6E0338BF5B1EDCF1200E60
:1016A00025D322FA0CFE10EB0E0043FA0CFE41EBA0
:1016B0000E01CCF1200E03FA0EFE10EB0E0051F1DC
:1016C0000001CCF1200E29D412FA0EF201EB0451E4
:1016D000BDE8104058BF7047401C1CBFB2F1004F1E
:1016E000704700280CBF491C20F00100704712EB26
:1016F000020E43EB030218BF4FF0010E4EEA420206
:10170000ACF1200CDCF11E0E54D943FA0CFE10EBA8
:101710000E0051F1FF31CCF11E0ED5D50EF1010EA8
:1017200012FA0EFE404141EB010101EB445C5FEA1D
:101730005C5C10D910EBDE7001EB045138BFBEF1D8
:10174000004FBDE8104018BF704700280CBF491C6F
:1017500020F00100704730D24FEAD42C11F500116F
:1017600024F400641BD0B1FA81F20B3AA41AA41E2F
:10177000D2F12003914030FA03F31943904001EB7A
:10178000CC71002C01EB0451BDE81040A8BF70479C
:1017900001F1C0414FF0000001F000417047B0FA84
:1017A00080F310FA03F100D110BDE41A173C48058C
:1017B000C90AE4E701EB045110BD491001EB0451E3
:1017C000BDE810404FEA300002E04FF000017047E2
:1017D0004A0008BF0042F8D0B2F5001F28BF70478A
:1017E00001F000414FF0000070479EEA445F07D0CF
:1017F00011EA5E0FBDE8104004BF002100207047D1
:10180000BDE8104070B5FFF7CBFE00BF40DFF63EED
:1018100083F00041104670470000E0FF401058BFC1
:10182000C0F14040491058BFC1F140418142EFF33F
:10183000008070474FF47F0C1CEAD0121EBF1CEAD8
:10184000D11392EA0C0F93EA0C0F00F0858090EA16
:10185000010F48BF42F4807240F4000C41F40000D4
:101860002CF07F4120F07F4000B58142A2EB0302C3
:101870000FF2081CACEB504EC0F100009EF800E0E7
:101880004FEA4E0E00FB0EFC38BF49004FEA2C1CFD
:1018900002F5FA020CFB0EF34FEACE1E4FEA112CB2
:1018A0004FEAC1210EEB635E42EB22420EFB0CFCC1
:1018B0004FEA1C5300FB03114FEA112C4FEA013190
:1018C0000EFB0CFC4FEADC4C00FB0C11C14228BFA4
:1018D00009184CEB03335DF804EB10EB410143EBCB
:1018E000C250B2F57C0F38BF704729D512F0F00F07
:1018F0001CBF00F1C04000F00040704700818283AF
:101900008485868788898B8C8D8E8F91929395960E
:1019100097999A9C9D9FA0A2A3A5A7A8AAACAEB098
:10192000B2B3B5B7B9BCBEC0C2C5C7C9CCCED1D49D
:10193000D7D9DCDFE2E6E9ECF0F3F7FAFE000000CD
:101940004FEA400C0CF1807CBCF17E4F28BF704701
:10195000B0F1C04000F0E6B890EA010F0CEAD113F4
:1019600048BF42F48072624538BF634507D213F422
:101970007F0F16D080EA010000F00040704710B5DC
:1019800000F08AF8097EFC3E00F005B880EA01000C
:1019900000F00040704780EA010000F0004000F0D5
:1019A000C1B812F47F0F04BF0248704780EA0100FB
:1019B00000F0B8B80000C07F41000B0ED3F19E02CA
:1019C00008D950F400034FEA032323FA02F048BF7A
:1019D0004042704710B500F05FF800BF4992248084
:1019E000002070476FF0004282EA2000704700003C
:1019F000C10DD1F19E0206DB4FEA002343F0004304
:101A000023FA02F07047004207D54FEA4001B1F1D6
:101A1000FE4F02D24FF00000704710B500F03CF8C6
:101A200049922480002070476FEA20007047000030
:101A300050EA010C00F113801CF5000F58BFBCF5F3
:101A4000000F01D48842704707D710F5000F58BF28
:101A500011F5000F15D488427047894270471CF574
:101A6000000F04D5BCF5000FF7D5814270474FF049
:101A7000807C1CEB400F38BF1CEB410F01D2814230
:101A8000704710B500F008F8922449004FF000505C
:101A90004FF08051FFF7C2BE0EF1020E2EF0030E82
:101AA0005EF8044B244204D44FEA4102B2F17F4F66
:101AB00011D84FEA4003B3F17F4F0CD80ED14FEA53
:101AC000D07CB2F17F4F0CEB4C0C0CF1020C08BF38
:101AD0004CEBD17C04E04FF0080C01E04FEAD17CE4
:101AE0000CEB4C0324FA03F404F00704B4F1040CE7
:101AF00006D20EEB840CBDE810404CF0010C6047A0
:101B0000DFE80CF0070802024FF00040A0F580006B
:101B100010BD0846420018BFD2F1807288BF00F0A5
:101B2000004010BDFF2141EAD050C00570470000C1
:101B3000000000000000002F000000000700070068
:101B400000147F147F1400242A7F2A120062640884
:101B50001323003649552250000005030000000001
:101B60001C224100000041221C000014083E081401
:101B70000008083E0808000000A0600000080808EF
:101B80000808000060600000002010080402003E09
:101B90005149453E0000427F4000004261514946A4
:101BA000002141454B31001814127F100027454594
:101BB0004539003C4A4949300001710905030036A6
:101BC0004949493600064949291E000036360000B9
:101BD00000005636000000081422410000141414BE
:101BE00014140000412214080002015109060032B9
:101BF0004959513E007C1211127C007F49494936F7
:101C0000003E41414122007F4141221C007F494961
:101C10004941007F09090901003E4149497A007F95
:101C20000808087F0000417F4100002040413F013B
:101C3000007F08142241007F40404040007F020C9A
:101C4000027F007F0408107F003E4141413E007F3B
:101C500009090906003E4151215E007F0919294604
:101C60000046494949310001017F0101003F4040E0
:101C7000403F001F2040201F003F4038403F00638E
:101C800014081463000708700807006151494543B0
:101C900000007F41410000552A552A55000041416E
:101CA0007F00000402010204004040404040000068
:101CB00001020400002054545478007F4844443802
:101CC00000384444442000384444487F0038545489
:101CD000541800087E0901020018A4A4A47C007F07
:101CE000080404780000447D4000004080847D00AA
:101CF000007F102844000000417F4000007C041851
:101D00000478007C0804047800384444443800FC1B
:101D1000242424180018242418FC007C0804040837
:101D200000485454542000043F444020003C4040AC
:101D3000207C001C2040201C003C4030403C0044E3
:101D400028102844001CA0A0A07C004464544C44EB
:101D5000141414141414000000000000000000000B
:101D600000000000FC000000000002000000000C69
:101D7000020C020000000000000090D0BCD0BC901B
:101D80000003000300001824FE448C000302070235
:101D900001001824D8B04C80000300010201C038B3
:101DA000E438E0000102020102020806000000001F
:101DB000000000000000000000F804020000000124
:101DC0000204000204F80000000402010000906018
:101DD000F86090000000010000002020FC2020009E
:101DE00000000100000000000000000008060000E4
:101DF0000000202020202000000000000000000043
:101E0000000000000002000000000080601C0200D2
:101E1000040300000000F8040404F80001020202B8
:101E200001000008FC00000000020302000018840A
:101E30004424180003020202020008042424D800EB
:101E400001020202010040B088FC80000000000393
:101E500002003C242424C400010202020100F824F0
:101E6000242CC0000102020201000C04E41C040046
:101E7000000003000000D8242424D800010202023C
:101E8000010038444444F80000030202010000004D
:101E90001000000000000200000000002000000010
:101EA000000006000000002050880402000000002E
:101EB000010290909090900000000000000000024D
:101EC000048850200002010000001804C4241800F7
:101ED000000002000000F804E494F800010202028D
:101EE000020000E09CF0800002030000030204FCFA
:101EF0002424D800020302020100F80404040C00A8
:101F000001020202010004FC0404F80002030202C0
:101F1000010004FC24740C0002030202030004FC10
:101F200024740C00020302000000F0080444CC40BA
:101F300000010202010004FC2020FC040203000056
:101F400003020404FC040400020203020200000471
:101F500004FC040406040403000004FC24D00C0464
:101F600002030200030204FC040000000203020258
:101F70000203FC3CC03CFC0003000300030004FC23
:101F800030C4FC04020302000300F8040404F80057
:101F900001020202010004FC2424180002030200D2
:101FA0000000F8848404F80001020207050004FC24
:101FB00024649800020302000302182424448C00C5
:101FC0000302020201000C04FC040C0000020302E4
:101FD000000004FC0000FC04000102020100047C7B
:101FE00080E01C040000030000001CE03CE01C003A
:101FF000000300030000049C609C04000203000333
:102000000200041CE01C04000002030200000C8417
:10201000641C04000203020203000000FE0202002E
:10202000000007040400000E30C0000000000001A2
:102030000200000202FE0000000404070000000489
:10204000020400000000000000000000000000008A
:10205000080808080808000002000000000000004E
:1020600000000040A0A0C00000010202030204FC26
:102070002020C00000030202010000C020206000F8
:1020800000010202020000C02024FC000001020244
:10209000030200C0A0A0C000000102020200002054
:1020A000F82424040002030202000040A0A06020E3
:1020B00000070A0A0A0404FC2020C00002030200F0
:1020C00003020020E4000000000203020000000000
:1020D00020E4000008080807000004FC80E020203D
:1020E0000203020003020404FC00000002020302D7
:1020F0000200E020E020C00003000300030020E015
:102100002020C00002030200030200C02020C00003
:1021100000010202010020E02020C000080F0A0296
:10212000010000C02020E0000001020A0F0820E0AA
:10213000402020000203020000000060A0A0200058
:102140000002020203000020F8200000000001024B
:10215000020020E00020E00000010202030220E073
:10216000208060200000030100006080E0806000AB
:1021700000030003000020608060200002030003D1
:10218000020020E0208060200808070100000020F5
:10219000A0602000000203020200000020DE020016
:1021A000000000070400000000FF00000000000F16
:1021B00000000002DE200000000407000000020111
:1021C0000204040200000000000000000000000003
:1021D00000000000000000000000000000F8000007
:1021E0000000000000333000000000100C06100C4E
:1021F0000600000000000000000040C07840C078E9
:102200004000043F04043F040400007088FC0830D0
:102210000000001820FF211E0000F008F000E01868
:10222000000000211C031E211E0000F00888700021
:1022300000001E2123241927211010160E00000073
:1022400000000000000000000000000000E0180492
:102250000200000000071820400000020418E000FF
:1022600000000040201807000000404080F080403F
:1022700040000202010F01020200000000F0000015
:1022800000000101011F0101010000000000000029
:10229000000080B07000000000000000000000009E
:1022A0000000000101010101010100000000000027
:1022B00000000030300000000000000000008060DE
:1022C0001804006018060100000000E01008081063
:1022D000E000000F102020100F00001010F8000088
:1022E00000000020203F202000000070080808881F
:1022F00070000030282422213000003008888848EF
:1023000030000018202020110E000000C02010F81E
:10231000000000070424243F240000F808888808EF
:1023200008000019212020110E0000E010888818F4
:102330000000000F112020110E0000380808C838D6
:1023400008000000003F00000000007088080888B6
:102350007000001C222121221C0000E0100808103F
:10236000E0000000312222110F00000000C0C00078
:10237000000000000030300000000000008000007D
:10238000000000008060000000000000804020107D
:102390000800000102040810200040404040404076
:1023A00040000404040404040400000810204080D9
:1023B000000000201008040201000070480808080E
:1023C000F0000000003036010000C030C828E810DE
:1023D000E0000718272423140B000000C038E00099
:1023E0000000203C23020227382008F888888870E3
:1023F0000000203F202020110E00C03008080808EF
:102400003800071820202010080008F808080810D5
:10241000E000203F202020100F0008F88888E808FE
:102420001000203F20202320180008F88888E808A2
:102430001000203F200003000000C03008080838CA
:10244000000007182020221E020008F808000008DB
:10245000F808203F210101213F20000808F8080862
:1024600000000020203F2020000000000808F8089D
:102470000800C08080807F00000008F888C028180D
:102480000800203F20012638200008F8080000003E
:102490000000203F20202020300008F8F800F8F845
:1024A0000800203F003F003F200008F830C000082F
:1024B000F808203F200007183F00E0100808081027
:1024C000E0000F10202020100F0008F8080808086E
:1024D000F000203F210101010000E0100808081071
:1024E000E0000F18242438504F0008F888888888A6
:1024F0007000203F2000030C30200070880808087E
:1025000038000038202121221C00180808F808088B
:1025100018000000203F2000000008F80800000814
:10252000F808001F202020201F000878880000C81D
:102530003808000007380E010000F80800F800080D
:10254000F800033C0700073C030008186880806817
:10255000180820302C03032C30200838C800C83855
:1025600008000000203F2000000010080808C838BC
:1025700008002038262120201800000000FE02025A
:1025800002000000007F40404000000C30C000000E
:102590000000000000010638C00000020202FE0038
:1025A0000000004040407F000000000004020202E2
:1025B0000400000000000000000000000000000017
:1025C0000000808080808080808000020204000003
:1025D00000000000000000000000000080808080FB
:1025E00000000019242222223F2008F800808000E9
:1025F0000000003F112020110E00000000808080AC
:102600000000000E112020201100000000808088B2
:10261000F800000E112020103F20000080808080F4
:102620000000001F222222221300008080F08888F0
:1026300088180020203F202000000000808080803B
:102640008000006B94949493600008F80080808070
:102650000000203F210000203F20008098980000CB
:1026600000000020203F20200000000000809898FB
:10267000000000C08080807F000008F8000080809B
:102680008000203F24022D302000000808F80000C0
:1026900000000020203F202000008080808080807B
:1026A0008000203F20003F20003F8080008080800D
:1026B0000000203F210000203F200000808080801B
:1026C0000000001F202020201F008080008080004C
:1026D000000080FFA12020110E00000000808080FB
:1026E0008000000E112020A0FF808080800080806C
:1026F000800020203F212000010000008080808099
:1027000080000033242424241900008080E080808D
:1027100000000000001F20200000808000000080DA
:102720008000001F202020103F208080800000803B
:10273000808000010E30080601008080008000804B
:1027400080800F300C030C300F00008080008080F0
:1027500080000020312E0E3120008080800000801B
:10276000808080818E7018060100008080808080CB
:1027700080000021302C2221300000000000807CED
:10278000020200000000003F404000000000FF0087
:10279000000000000000FF0000000002027C80003A
:1027A00000000040403F000000000006010102025E
:1027B0000404000000000000000000000000000011
:1027C0000000000000000000000000000000000009
:1027D00000000000000000000000000000000000F9
:1027E000000000F0F0F00000000000000000000118
:1027F0007F010000000000000000001C1C1C000005
:10280000000000008060301C8C60301C0C00000058
:1028100000000000000000000000000000000000B8
:10282000000000000000000000E00000000000E0E8
:1028300000000086E69F86868686E69F8600000169
:102840001F01010101011F010100000080C0602083
:10285000F820E0C00000000003070C18FF70E181C1
:1028600000000000070F10107F100F0700008060AD
:10287000206080000000E02000000F3020309F70BA
:10288000DC371030C0000000100E030007181018CD
:1028900007000000C02020E0C0000000000080E031
:1028A0001F38E88703C43C040000070F1810100B02
:1028B000070D1010080000808C4C3800000000004C
:1028C0000000000000000000000000000000000008
:1028D00000000000000000000000000000000000F8
:1028E00080E0300804000000000000FEFF0100004E
:1028F0000000000000000000030F1820400000044A
:102900000830E0800000000000000000000001FF2F
:10291000FE0000000000004020180F03000000002F
:102920000000000000000000C000000000000042A5
:1029300066663C18FF183C66664200000000000016
:102940000300000000000000000000008000000004
:102950000000001010101010FF10101010100000D8
:102960000000000003000000000000000000000064
:102970000000000000000000000000000000000057
:10298000000000808C4C38000000000000000000B7
:1029900000000000000000000000001010101010E7
:1029A00010101010100000000000000000000000D7
:1029B0000000000000000000000000000000000017
:1029C0000000000000000000000000001C1C1C00B3
:1029D0000000000000000000000000000000E038DF
:1029E0000C000000000080701C030000000000606C
:1029F000380E0100000000000000000080C06020D0
:102A00002060C080000000FEFF010000000001FF08
:102A1000FE000001070E181010180E07010000003C
:102A2000808080C0E000000000000000000000FF87
:102A3000FF000000000000001010101F1F101010F9
:102A400000000080402020202060C08000000003A3
:102A50000300804020381F070000001C1A191818B6
:102A60001818181F00000080C020202060C08000BF
:102A70000000000303001010182FE780000000077B
:102A80000F10101010180F070000000000000000C9
:102A9000C0E0F000000000C0B088868180FFFF80A9
:102AA0008000000000000010101F1F101000000028
:102AB000E060606060606060000000003F10080837
:102AC0000818F0E0000000070B101010101C0F0396
:102AD0000000000080C040202020E0C0000000FC7A
:102AE000FF211008080818F0E0000001070C18107A
:102AF0001010080F03000000C0E06060606060E03C
:102B00006000000003000000E01807000000000063
:102B10000000001F1F00000000000080C060202097
:102B2000202060C080000087EF2C1818303068CF5C
:102B3000830000070F0810101010180F0700000086
:102B4000C0C020202020C0800000001F3F60404007
:102B5000402010FFFE0000000C1C101010080F0396
:102B60000000000000000000000000000000000065
:102B70000000000E0E0E0000000000000000001C0F
:102B80001C1C00000000000000000000000000000D
:102B9000000000000000000C0C000000000000001D
:102BA0000000005838000000000000000000000095
:102BB0000080402010000000102844820100000026
:102BC00000000000000000000102040810000000E6
:102BD0000000000000000000000000848484848461
:102BE0008484848484000000000000000000000051
:102BF00000000000102040800000000000000000E5
:102C000000000000018244281000000010080402A7
:102C100001000000000000C020201010101030E063
:102C2000C0000003030000F010080C0703000000C0
:102C300000001C1C1C0000000000000000C04060E0
:102C400020202040C00000FCFF01F00E03C1FE0365
:102C5000807F0001070E0811111011090402000005
:102C6000000080E0E000000000000000807C4340A5
:102C7000477FF880000010181F1000000000131F8D
:102C80001C1020E0E02020202060C080000000FF19
:102C9000FF10101010182FE78000101F1F101010C9
:102CA0001010180F0700000080C040202020206076
:102CB000E00000FCFF010000000000000100000136
:102CC000070E181010100804030020E0E020202058
:102CD0002040C080000000FFFF000000000001FF56
:102CE000FE00101F1F10101018080E07010020E032
:102CF000E020202020202060800000FFFF10101026
:102D0000107C00000000101F1F1010101010101871
:102D1000060020E0E020202020206060800000FFEE
:102D2000FF101010107C00000100101F1F10000089
:102D3000000000000000000080C06020202040E073
:102D4000000000FCFF0100004040C0C14040000105
:102D5000070E181010100F0F000020E0E0200000F8
:102D6000000020E0E02000FFFF101010101010FF06
:102D7000FF00101F1F1000000000101F1F10000098
:102D8000202020E0E020202000000000000000FFC4
:102D9000FF000000000000001010101F1F10101096
:102DA000000000000000202020E0E02020200000A3
:102DB0000000000000FFFF0000000060E080808055
:102DC000C07F3F00000020E0E020000020A0602045
:102DD000200000FFFF30187CE3C000000000101F3F
:102DE0001F10000001131F1C181020E0E02000003D
:102DF00000000000000000FFFF00000000000000D5
:102E00000000101F1F10101010101018060020E0F6
:102E1000E0E000000000E0E0E02000FF013FFEC035
:102E2000E01E01FFFF00101F1000031F0300101F12
:102E30001F1020E0E0C0000000000020E02000FFA4
:102E40000003071C78E08000FF00101F1000000046
:102E50000000030F1F00000080C060202060C080C1
:102E6000000000FEFF010000000000FFFE00000166
:102E7000070E181010180C07010020E0E020202099
:102E8000202060C0800000FFFF2020202020301F75
:102E90000F00101F1F1000000000000000000000C5
:102EA00080C060202060C080000000FEFF010000A4
:102EB000000000FFFE000001070E1111133C7C67AB
:102EC000210020E0E0202020202060C0800000FFC2
:102ED000FF101030F0D0080F0700101F1F10000067
:102EE00000030F1C10100080C060202020204040F4
:102EF000E00000070F0C1818303060E08100001F60
:102F00000C0810101010180F07008060202020E01F
:102F1000E020202060800100000000FFFF00000092
:102F2000000100000000101F1F100000000020E042
:102F3000E020000000000020E02000FFFF00000073
:102F400000000000FF0000070F18101010101008FC
:102F500007002060E0E02000000020E0602000008A
:102F6000077FF88000807C03000000000000071F3E
:102F70001C070000000020E0E02000E0E02000202E
:102F8000E0200007FFF8E01FFFFCE01F000000004A
:102F9000031F0300011F03000000002060E0A000E9
:102FA0000020E0602000000000038F7CF8C60100D4
:102FB00000000010181E130001171F1810002060D9
:102FC000E0E02000000020E06020000001073EF863
:102FD000E0180700000000000010101F1F10100074
:102FE000000000806020202020A0E0E02000000001
:102FF0000000C0F03E0F0300000000101C1F17105F
:103000001010101806000000000000FC0404040466
:1030100004000000000000FF0000000000000000AD
:103020000000007F404040404000000010E00000F1
:1030300000000000000000000000031C6080000091
:10304000000000000000000000030C708000000081
:103050000404040404FC0000000000000000000060
:1030600000FF00000000000040404040407F0000A2
:10307000000000000010080C040C08100000000004
:103080000000000000000000000000000000000040
:103090000000000000000000000000000000000030
:1030A0000000000000000000000000000000808020
:1030B0008080808080808080808000000004040800
:1030C00008000000000000000000000000000000F8
:1030D00000000000000000000000000000000000F0
:1030E00000000000000000000000000098D84464C8
:1030F0002424FCF80000000F1F18101010081F1FD8
:1031000010180020E0F000000000000000000000A7
:10311000FFFF180804040CF8F00000001F0F18103F
:103120001010180F03000000000000000000000055
:10313000000000E0F8180404043C3800000000031C
:103140000F0C101010100806000000000000000016
:103150000020E0F0000000E0F81C04040408FFFF79
:10316000000000030F18101010081F0F08000000C7
:10317000000000000000000000000000E0F84844EB
:1031800044444C7870000000030F0C181010100815
:1031900004000000000080C0602020E0C0000004A7
:1031A0000404FFFF040404040000000010101F1FAB
:1031B00010101000000000000000000000000000DF
:1031C0000000000070F88C04048CF874040C00708B
:1031D00076CF8D8D8D89C87870000020E0F00000DA
:1031E0000000000000000000FFFF08040404FCF8D9
:1031F000000000101F1F100000101F1F1000000013
:10320000000000606000000000000000040404FCF6
:10321000FC000000000000001010101F1F10101014
:1032200000000000000000000060600000000000DE
:103230000000040404FCFC0000000000C0C080800A
:10324000C07F3F0000000020E0F000000000000010
:1032500000000000FFFF80C0F41C04040000001008
:103260001F1F1100031F1C1010000000202020E071
:10327000F000000000000000000000FFFF00000060
:10328000000000001010101F1F10101000000000A0
:103290000000000000000000000004FCFC0804FC2A
:1032A000FC0804FCFC00101F1F10001F1F10001F53
:1032B0001F100000000000000000000000000004DB
:1032C000FCFC08080404FCF8000000101F1F10009C
:1032D00000101F1F10000000000000000000000090
:1032E000000000E0F0180C04040C18F0E0000003EB
:1032F0000F0C101010100C0F030000000000000055
:103300000000000000000004FCFC080404040CF8A9
:10331000F0000080FFFF889010101C0F03000000D9
:103320000000000000000000000000E0F81C0404A1
:103330000408F8FC000000030F1810109088FFFF2D
:1033400080000000000000000000000000000404F5
:1033500004FCFC100804040C0C001010101F1F10BB
:10336000101000000000000000000000000000003D
:10337000000000003078CCC48484840C1C00000061
:103380001E1810101011190F06000000000000C0D8
:1033900000000000000000040404FFFF0404040017
:1033A0000000000000000F1F1010100C00000000B3
:1033B000000000000000000000000004FCFE00000F
:1033C0000004FCFE000000000F1F181010081F0F63
:1033D00008000000000000000000000000000004E1
:1033E0000C3CFCC40000C43C0C0400000000010FB5
:1033F0001E0E0100000000000000000000000000A0
:103400000000043CFCC400E47CFC84807C040000DC
:10341000071F070000071F07000000000000000052
:103420000000000000000004041C7CE4C0341C0404
:1034300004000010101C1601131F1C1810000000BF
:103440000000000000000000000000040C3CFCC470
:1034500000C43C0404000000C080C1370E0100001D
:10346000000000000000000000000000000000005C
:103470001C0404C4F47C1C0400000000101C1F1772
:10348000111010180E0000000000000000F80C04DD
:10349000000000000000001028EF00000000000005
:1034A00000000000003F604000000000000000003D
:1034B000FF0000000000000000000000FF0000000E
:1034C0000000000000000000FF00000000000000FD
:1034D000040CF80000000000000000000000EF28CD
:1034E000100000000000000040603F0000000000ED
:1034F0000000001806020204081020203008000016
:1035000000000000000000000000000000000000BB
:103510000000000000000000F010101010FF10105C
:103520001010F000000000000F04040404FF040465
:1035300004040F0000004040405F55555575555537
:10354000555F404040000040200F09498979090932
:10355000090F2040000000FE02424ACA4A4ACA4AF5
:103560004A4202FE000000FF40504C4340404F5092
:10357000505C40FF00000000F888888888FF888839
:103580008888F800000000001F080808087F888865
:1035900088889F80F00080828282828282E2A2926A
:1035A0008A8682808000000000000040807F00004A
:1035B000000000000000101010FF1090088888889C
:1035C000FF88888808000444827F01808040432C63
:1035D0001028468180000010101010D030FF30D02D
:1035E000121C1010000010080402010000FF00006F
:1035F00001020408100004040484E43C2724242469
:1036000024E40404040004020100FF090909094933
:10361000897F0000000000FE225A8600FE929292EE
:103620009292FE00000000FF04080700FF40200304
:103630000C1422414000008040201806800007182A
:103640002040800000000100207028262120202436
:103650003860000101000010129292929292921230
:103660001202FE0000000000003F101010103F008A
:1036700040807F000000000000C08080808080804B
:1036800080FC84808080808080C0C00000000000BA
:1036900000FF7F404040404040FF404040404040AD
:1036A00040FF7F000000000000000000000000005C
:1036B000007F70000000000000000000000000001B
:1036C00000000000000000000000000000FCF80006
:1036D00000000000000000000000000000000000EA
:1036E0000000FFFE020202020202020202FFFF02CB
:1036F0000202020202020202FF03000000000000B8
:1037000000001F1F040404040404040404FFFF0455
:1037100004040404040404041F000000000000006A
:10372000000000000000000000000000007F3F00DB
:103730000000000000000000000000000000000089
:103740000000000000000000000000000000000079
:103750000000000000000000000000F8F8F0F07029
:103760002000000000000000000000000000000039
:103770000000000000000000000000000000000049
:1037800000000000000080000000000000000000B9
:103790000000000000000000000000FFFFFFFF002D
:1037A0000000000000000000000000000000000019
:1037B0000000808000000000000000000000000009
:1037C00000000000000000FFFFFE060606060606D9
:1037D0000606060606060606060606FFFFFFFF06A5
:1037E0000606060606060606060606060606060679
:1037F00006FFFFFFFF0702000000000000000000BE
:1038000000000000000000FFFFFF000000000000BB
:103810000000000000000000000000FFFFFFFF00AC
:103820000000000000000000000000000000000098
:1038300000FFFFFFFF00000000000000000000008C
:1038400000000000000000FFFFFF181818181818EB
:103850001818181818181818181818FFFFFFFF184C
:1038600018181818181818181818181818181818D8
:1038700018FFFFFFFF000000000000000000000034
:103880000000000000000201010000000000000034
:103890000000000000000000000000FFFFFFFF002C
:1038A0000000000000000000000000000000000018
:1038B0000001010000000000000000000000000006
:1038C00000000000000000000000000000000000F8
:1038D0000000000000000000000000FFFFFFFF00EC
:1038E00000000000000000000000000000000000D8
:1038F00000000000000000000000000000000000C8
:1039000000000000000000000000000000000000B7
:1039100000000000000000000000001F1F0F0F004B
:103920000000000000000000000000000000000097
:103930000000000000000000000000000000000087
:1039400060390008000000202C0800006C0100080D
:10395000543B00082C080020AC0B0000D0010008EC
:10396000A200016004A24A040B50190102030406DC
:103970000708090003050911FF118905C300E000CC
:10398000F000F82A00083A4428FF11AA4400015028
:103990000B830138448292927401831120087C4485
:1039A000FF017D7D7D04410550047D01FF8D910265
:1039B00071A1023B017E81419149F20101011BC2CB
:1039C00030083F3F0303F3131101100601F11161A9
:1039D00081402005816111F14733414107200401F5
:1039E000C12120A321C11431193137040736D33343
:1039F00003033F3F426006E0E000007FA8167FB46B
:103A000040040618060A1008000040407F4040A409
:103A100010041F204001A3201F143300600E600417
:103A2000300C03460534C210040707060170090470
:103A3000040484444444840780050484C4041501B8
:103A4000120A71112140073D0707C9200F0000101D
:103A50001814121100000F1010100F0F131F101563
:103A6000600D081012120D00001800000D120A510E
:103A7000295130015E01528001013B4514047F034E
:103A80000CA915DE1C05385454582503080A2004D7
:103A9000047800003C40407C2000092CFFAAAAAA20
:103AA000280800FF6810062649494932101005020F
:103AB0000408100F0D6F00049D01040D9D000415F6
:103AC0006343F80801240500F81860E824048060C6
:103AD00018235720202923E01021A310E01449B413
:103AE000313908043C886818630D15FF037DEA032B
:103AF0009DFF0371144DFF031D06043D2E04094272
:103B0000E91C0640202020C04A04110721EA3E405B
:103B1000520452600E8118712951070D4769031C28
:103B2000060C0A0A090C0004156B2D000420040879
:103B30000F081510050809090E071D18043005099E
:103B400009090F0A512951070DFF00040D22000435
:043B500091010000DF
:0400000508000131BD
:00000001FF
